:1000000075C5000090C500008EC500008CC50000BD
:100010008AC5000088C5000086C5000084C50000B0
:1000200082C5000080C500000C94AB220C94FB2319
:100030000C94E20F78C5000076C5000074C500007E
:1000400072C5000070C500006EC500006CC50000E0
:100050006AC500000C94872266C5000064C50000D4
:1000600062C5000060C500005EC500005CC5000000
:100070005AC5000058C5000056C5000054C5000010
:1000800052C5000050C500004EC500004CC5000020
:100090004AC5000048C5000046C5000044C5000030
:1000A00042C5000040C500003EC500000631FF0902
:1000B00074A1010975150026FF00952075088102BD
:1000C000C005010902A10185020901A10005091964
:1000D000012908150025019508750181020501090E
:1000E0003009311581257F9502750881060938157B
:1000F00081257F950175088106050C0A3802158156
:10010000257F950175088106C0C005010906A1017A
:100110008506050719E029E71500250195087501F1
:1001200081020507190029EF1500250195F07501D9
:1001300081020508190129059505750191029501AE
:1001400075039101C005010906A101050719E02900
:10015000E715002501950875018102950175088153
:10016000010507190029FF150026FF0095067508EF
:10017000810005081901290515002501950575015E
:100180009102950175039101C06F6C65645F6F6E9C
:1001900020636D64206661696C65640A0000AF6F5E
:1001A0006C65645F6F666620636D64206661696C70
:1001B00065640A0000AE703A097072696E74207648
:1001C000616C7565730A643A0973657420646566C9
:1001D00061756C74730A75703A092B310A646E3A52
:1001E000092D310A6C743A092B31300A72743A09BC
:1001F0002D31300A4553432F713A09717569740ADC
:100200000A7370656564203D2064656C7461202A02
:10021000206D61785F7370656564202A202872659F
:1002200070656174202F2074696D655F746F5F6DF8
:100230006178290A77686572652064656C74613A33
:1002400020637572736F723D25642C207768656535
:100250006C3D25640A53656520687474703A2F2FCD
:10026000656E2E77696B6970656469612E6F726760
:100270002F77696B692F4D6F7573655F6B65797348
:100280000A004D3E20004D25753A25733E20003F63
:100290000A003D2025750A003F0A00646566617505
:1002A0006C74730A0025750A003F0A000A092D20A4
:1002B00056616C756573202D0A00710A000A092DBC
:1002C000204D6F7573656B6579202D0A0009025406
:1002D00000030100A0FA0904000001030101000964
:1002E00021110100012244000705810308000109D2
:1002F0000401000103000000092111010001228412
:100300000007058203200001090402000103000028
:1003100000092111010001221500070583032000B7
:10032000011201000200000008EDFE606000010102
:1003300002000110036C006F00740075007300343C
:1003400000300000000E036B0075006A0069007940
:100350000068000000040309045B435D005B445D2A
:10036000005B535D005B575D005B525D0064656C34
:100370005F6B65795F6269743A2063616E277420F0
:1003800064656C3A20253032580A006164645F6B02
:1003900065795F6269743A2063616E2774206164D5
:1003A000643A20253032580A00290A002575002FAA
:1003B000002575005D2800256400200025640020CC
:1003C0000025640020002564007C002530325800A0
:1003D0006D6F7573656B6579205B62746E7C7820D8
:1003E00079207620685D287265702F61636C293AE8
:1003F000205B004C25640A00313A0964656C617920
:10040000282A31306D73293A2025750A323A096954
:100410006E74657276616C286D73293A2025750AB1
:10042000333A096D61785F73706565643A202575AC
:100430000A343A0974696D655F746F5F6D61783A6B
:100440002025750A353A09776865656C5F6D6178B6
:100450005F73706565643A2025750A363A097768D6
:1004600065656C5F74696D655F746F5F6D61783A27
:100470002025750A006B65796D61705F636F6E662C
:1004800069672E7261773A20253032580A2E7377C9
:1004900061705F636F6E74726F6C5F636170736CB9
:1004A0006F636B3A2025750A2E636170736C6F63FE
:1004B0006B5F746F5F636F6E74726F6C3A2025753B
:1004C0000A2E737761705F6C63746C5F6C6775691B
:1004D0003A2025750A2E737761705F7263746C5FC2
:1004E000726775693A2025750A2E737761705F6CA3
:1004F000616C745F6C6775693A2025750A2E737795
:1005000061705F72616C745F726775693A202575FE
:100510000A2E6E6F5F6775693A2025750A2E73770C
:1005200061705F67726176655F6573633A202575F8
:100530000A2E737761705F6261636B736C617368BD
:100540005F6261636B73706163653A2025750A2E83
:100550006E6B726F3A2025750A2E737761705F6536
:1005600073636170655F636170736C6F636B3A2076
:1005700025750A0064656275675F636F6E666967FB
:100580002E7261773A20253032580A2E656E6162EC
:100590006C653A2025750A2E6D61747269783A206F
:1005A00025750A2E6B6579626F6172643A20257534
:1005B0000A2E6D6F7573653A2025750A00656563AF
:1005C0006F6E6669673A0A64656661756C745F6C24
:1005D000617965723A20256C750A000A092D204D53
:1005E00061676963202D0A443A0944656275672092
:1005F0004D65737361676520546F67676C650A5852
:100600003A094D6174726978204465627567204DBE
:100610006F646520546F67676C65202D2053686F89
:1006200077206B65797072657373657320696E20CE
:100630006D617472697820677269640A4B3A094B7C
:100640006579626F61726420446562756720546FDA
:1006500067676C65202D2053686F77206B65797014
:1006600072657373207265706F72740A4D3A094433
:1006700065627567204D6F75736520546F67676C91
:10068000650A563A0956657273696F6E0A533A09DC
:100690005374617475730A433A09416374697661EE
:1006A000746520436F6E736F6C65204D6F64650ACF
:1006B00046312D4631303A095377697463682074A6
:1006C0006F204C6179657220302D392028463130F9
:1006D000203D204C30290A302D393A09537769746E
:1006E000636820746F204C6179657220302D390A5F
:1006F00047524156453A0953776974636820746FCD
:10070000204C6179657220302028616C7465726EAE
:10071000617465290A423A094A756D7020746F2028
:10072000426F6F746C6F616465720A4553433A0996
:100730004A756D7020746F20426F6F746C6F6164C6
:1007400065722028616C7465726E617465290A4552
:100750003A095072696E7420454550524F4D2053EE
:10076000657474696E67730A4241434B5350414349
:10077000453A09436C65617220454550524F4D0A18
:100780004E3A094E4B524F20546F67676C650A0012
:100790002573000A092D20537461747573202D0A86
:1007A000686F73745F6B6579626F6172645F6C65AB
:1007B000647328293A20253032580A6B6579626FB4
:1007C0006172645F70726F746F636F6C3A20253072
:1007D00032580A6B6579626F6172645F69646C6537
:1007E0003A20253032580A6B65796D61705F636F0E
:1007F0006E6669672E6E6B726F3A20253032580A2A
:1008000074696D65725F72656164333228293A20BC
:100810002530386C580A003F004E4B524F3A206F3B
:1008200066660A004E4B524F3A206F6E0A000A6D00
:100830006F7573653A206F66660A000A6D6F75738F
:10084000653A206F6E0A000A6B6579626F617264A7
:100850003A206F66660A000A6B6579626F6172649E
:100860003A206F6E0A000A6D61747269783A206FDF
:1008700066660A000A6D61747269783A206F6E0AC2
:10088000000A64656275673A206F66660A000A644A
:10089000656275673A206F6E0A000A0A4A756D70C4
:1008A000696E6720746F20626F6F746C6F6164652E
:1008B000722E2E2E2000433E2000436C656172692B
:1008C0006E6720454550524F4D0A00646973706C45
:1008D00061795F736574757032206661696C6564F7
:1008E0000A0000DA0281FFD9F1DB20A4A62EAF6452
:1008F0006973706C61795F666C697070656420669D
:1009000061696C65640A0000A0C0D3006F6C656407
:100910005F696E697420636D64206E6F726D616CC7
:1009200020726F746174696F6E206661696C6564B2
:100930000A0000A1C8D3006F6C65645F696E6974BA
:1009400020636D64207365742031206661696C6575
:10095000640A0000AED580A81F408D142000737576
:100960007370656E64696E67206B6579626F617222
:10097000640D0A000A0025303862003A2000253054
:100980003258000A722F6320303132333435363713
:100990000A006F6C65645F72656E64657239302041
:1009A00064617461206661696C65640A006F6C65DE
:1009B000645F72656E646572206461746120666153
:1009C000696C65640A006F6C65645F72656E64656E
:1009D00072206F666673657420636F6D6D616E64FF
:1009E000206661696C65640A006C65645F7461739C
:1009F0006B3A20253032580A00290014001A0008EA
:100A000000150017001C0018000C00120013002A2B
:100A1000002B0004001600070009000A000B000D5F
:100A2000000E000F002800E1001D001B0006001949
:100A300000050011001000360052005000E000E3F5
:100A400000E2002C0051004F000A002530325820EF
:100A5000006E6B726F5F7265706F72743A20253032
:100A60003258207C20000A002530325820006B6567
:100A700079626F6172645F7265706F72743A20257B
:100A8000303258207C20004F6E6573686F743A20B6
:100A90006163746976653A2025640A000A092D208D
:100AA000436F6E736F6C65202D0A4553432F713A67
:100AB00009717569740A6D3A096D6F7573656B65B7
:100AC000790A003F00433E200044454255473A2002
:100AD00064697361626C65642E0A0044454255473F
:100AE0003A20656E61626C65642E0A0011241FBE97
:100AF000CFEFDAE0DEBFCDBF12E0A0E0B1E0E6ED7F
:100B0000FDE402C005900D92AA35B107D9F725E0A2
:100B1000AAE5B2E001C01D92A338B207E1F70E9436
:100B2000761E0C9464266CCAFF93EF93E0915A02F0
:100B3000F0915B02309709F00995EF91FF910895CC
:100B4000FC018591803011F0EFDFFBCF0895FF2786
:100B5000E0E230E247FF0CC0419597FF09C0EDE2AB
:100B60006095709580959095611D711D811D911DF9
:100B700027FF02C0219530E350E2AA27660F771FB6
:100B8000881F991FAA1FA41710F0A41B63955A95DC
:100B9000A9F7AA3008F0A95FA05DAF93F39561159E
:100BA00071058105910541F7ED3211F4EF93F3954D
:100BB000F21718F43F93F395FBCF8F91B5DFFA95B9
:100BC000E1F70895E991F9918591803021F085321E
:100BD00019F0AADFF9CF089520E0E8945591553235
:100BE000C1F3503311F4689455915A3348F450537B
:100BF00090F3220F022E220F220F200D250FF4CF8B
:100C00000EF4219589919991533619F3533729F1AF
:100C1000533559F1BC0188279927E8945C3621F4B3
:100C20008991999168945591543639F446EF7EF044
:100C300077FF0DC08FEF9FEF0AC055374AE039F0BC
:100C4000583540E121F0523642E009F00895FF9313
:100C5000EF937DDFEF91FF91B7CFFF93EF93FC010F
:100C600081918030B9F360DFFBCFFF93EF9368DFB2
:100C7000F1CFDF93CF93CDB7DEB72596A3DFCF912A
:100C8000DF9108958295982F990F990F9C7C8695F6
:100C900086958373982B892F880F8A7A96959575F8
:100CA000892B089590933B0580933A05089590937E
:100CB0003D0580933C05089521E030E002C0220FFD
:100CC000331F8A95E2F780913C0590913D05822B78
:100CD000932BEDCF21E030E002C0220F331F8A9525
:100CE000E2F72095309580913C0590913D05822357
:100CF0009323DDCF953078F5883068F528E0929F12
:100D0000F0011124E80FF11D877041E001C0440F8C
:100D10008A95EAF783E0F695E7958A95E1F7EE0F75
:100D2000FF1FEE0FFF1FEA5EFA4F80E090E070E0D9
:100D30005191DF019B01082E02C0369527950A9438
:100D4000E2F7217021952527242325272E9301964C
:100D50008430910569F70895953070F5883060F515
:100D600028E0929FF0011124E80FF11D982F977051
:100D700083E0F695E7958A95E1F7EE0FFF1FEE0FFA
:100D8000FF1FEA5EFA4F40E050E080E0219130E042
:100D9000092E02C0369527950A94E2F72170332771
:100DA000042E01C0220F0A94EAF7822B4F5F5F4F97
:100DB0004430510559F7089580E008958091430526
:100DC00090914205981301C008958F5F8770FACF04
:100DD00090913E058095892380933E05282F2770AA
:100DE00021110CC0891751F09091400592FF06C067
:100DF0008695869586956EDF10923E0508958091C2
:100E0000370590914105892B50913805511591F086
:100E100090911901913021F490913F0597FD0BC0FD
:100E200096E02EE532E040E0915048F441111092F6
:100E30003805852B08959EE126E632E0F4CFF901CE
:100E400061919F01611581F34F5FEECF982F9095CF
:100E5000809137058923809337050895753088F48C
:100E6000683078F4811110C088E0789FF001112477
:100E7000E60FF11DEE0FFF1FE750F64F859194919D
:100E8000089580E090E0089581E0FCCF9C01803ED1
:100E9000910509F448C0D8F48133910509F47DC067
:100EA00048F48932910509F46DC08A9709F47CC031
:100EB000C90108958933910551F18238910539F1BD
:100EC000C597B1F780913F0585FFF2CF29C0843ED9
:100ED000910509F447C048F4823E910599F1833E9B
:100EE0009105A9F121EE30E0E3CF863E910509F4AA
:100EF00044C0873E9105E1F680913F0583FD61C0C6
:100F00009091400591FF2BC024EE30E0D1CF80912D
:100F10003F058370811152C08091400583FFC8CF87
:100F200029E230E0C5CF80913F0580FD33C090912C
:100F3000400590FFBDCF23EE30E084FFB9CF20E025
:100F400030E0B6CF80913F0582FDF5CFB1CF8091E3
:100F50003F0582FD30C09091400590FD2FC084FF79
:100F6000A7CFEDCF8091400581FFA2CF80913F05B3
:100F700027EE30E084FDE3CF9BCF80913F0583FDDA
:100F8000F7CF96CF80913F0585FD1EC0809140052B
:100F900083FF8ECF29E330E08BCF80913F0586FF22
:100FA00087CF2AE230E084CF80913F0586FF80CF53
:100FB00021E330E07DCF22EE30E07ACF20EE30E04A
:100FC00077CF26EE30E074CF25E330E071CF9091FB
:100FD0003F0592FF10C041E0282F2471243009F012
:100FE00040E031E0282F2871283009F030E0431725
:100FF00011F02CE0822793FF10C041E0282F2471CC
:10100000243109F040E031E0282F2871283109F01F
:1010100030E0431711F02CE082273091400530FF7B
:1010200010C051E0282F2171213009F050E041E03B
:10103000282F2871283009F040E0541711F029E0DA
:10104000822731FF10C041E0282F2171213109F0A2
:1010500040E031E0282F2871283109F030E04317B3
:1010600011F029E0822794FD877E08951F93CF9386
:10107000DF930CDFEC01811522E5920708F044C0F4
:10108000811540E5940708F0BAC0883E9105E0F468
:10109000803E910560F4853A910570F4049738F428
:1010A00081E0219709F080E0C82F50E0D52FCE01D4
:1010B000DF91CF911F9108958D5C9109D065439781
:1010C000B0F3C0E0D0E0F3CFC11580E4D80798F4C6
:1010D000C11590E2D90708F0A8C0CE019A958115F4
:1010E0009F4178F78D2F73DF182FCE019927CEDE21
:1010F000EC01D12BDCCFCE019927C8DECC27DF70E5
:10110000C82BD92BD06AD3CF803842E59407C8F5D5
:10111000803652E5950708F056C0C03482E5D807FE
:10112000D0F4C03292E5D90708F046C08C2F8695DE
:10113000869520E2829FC0011124C37021E030E037
:10114000A90102C0440F551FCA95E2F7EA01C82B56
:10115000D92BDD68ACCF8C2F86958695877050E2B1
:10116000859FC0011124C37021E030E0A90102C0B5
:10117000440F551FCA95E2F7EA01C82BD92BDC684A
:1011800096CF803C52E5950758F48F71C03AD2450E
:1011900078F590E0982F8827EC01C46FD06A87CF4C
:1011A000805C9245809708F08CCFDC2FCC27CC2731
:1011B000DF71C06FD06A7BCFCF71D0E0DC2FCC273E
:1011C000C16FD06A74CF86958695877020E2829F22
:1011D000C0011124C37021E030E0A90102C0440F16
:1011E000551FCA95E2F7EA01C82BD92BDA685FCF01
:1011F000EEDEC82FD0E0DC2FCC27D06258CF8F7125
:10120000E6DE93E0CC0FDD1F9A95E1F7CC27DF7087
:10121000282F30E084FF05C050E1859F9001112404
:101220003327C22BD32BD06942CF8D2F8F71CFDEC6
:10123000182FCE0199272ADEEC01D12BDECFA0E0BA
:10124000B0E0E5E2F9E00C94C9258C01E0903C05A2
:10125000F0903D0580913A0590913B05E82AF92AE6
:10126000CFE0D0E0CC24C394D12CC6010C2E02C018
:10127000880F991F0A94E2F78E219F21892B49F448
:10128000219798F7B12C8B2DCDB7DEB7E9E00C9400
:10129000E525BC2EB8018C2FE1DDE8DE019781F356
:1012A000F2CF0F931F93CF93FC01858100811181B1
:1012B000811579F0611569F0C801C1DFC82F682F69
:1012C000C80118DDB8018C2FC9DDCF911F910F9196
:1012D0000895C80141DDC82FF5CFCF93DF93D82FF4
:1012E000C92FADDF6D2F7C2FB9DDC0DEDF91CF912F
:1012F0000895FC018481811599F080819181EDDF51
:10130000282F92959F70963099F060F4925F9F70AD
:10131000923030F4203FB1F038F481E0283E38F0CC
:1013200080E008959A5FF3CF81E0243FC9F70895E4
:1013300091E0213F09F090E081E0283E08F080E054
:10134000892B089581E00895F894E82FE295EF70D5
:10135000F0E041A18F7021E030E0B90102C0660FDA
:10136000771F8A95E2F7CB01962F9095942391A34E
:1013700092A1892B82A378940895282F35EB23031B
:10138000C001112497FF04C080589109892F089546
:1013900080589F4FFBCF80912D0580FF0DC060913D
:1013A000000170E0660F771F60387105B0F56115B8
:1013B0007105A9F1862F089581FF07C06091000192
:1013C00084E0689FB0011124EFCF82FF04C06091D8
:1013D000000188E0F6CF90912C059115D9F020916D
:1013E000010180910001682F70E0921730F043E016
:1013F000660F771F4A95E1F7D7CF899FC001112467
:1014000033E0880F991F3A95E1F7622F70E00E9450
:101410000326CACF68E070E0CDCF8FE7089581E062
:10142000089580912D0580FF0CC06091020170E04D
:1014300075956795759567956115710549F1862FC5
:10144000089581FF06C06091020170E0759567956F
:10145000F3CF6091020182FD0BC090912B05911595
:10146000A1F06091030180910201961738F0682F76
:1014700070E06038710500F38FE70895899FC0011F
:10148000112470E00E940326F4CF61E070E0D7CF12
:1014900081E00895E0910C05F0910D05309739F049
:1014A0000190F081E02D309711F00995089580E0CA
:1014B00008958091180108952FB7F8946091A402BF
:1014C0007091A5028091A6029091A7022FBF089566
:1014D0000895FC019B0180919802909199028617D2
:1014E000970740F0672B29F48091E8008E7780936E
:1014F000E800C90140E0009741F4411106C0809125
:10150000E80082FF2FC080E008952091AF022115EE
:10151000A9F12530A9F12091E80023FD2DC02091EB
:10152000E80022FDECCF2091E80020FFE4CF3091CD
:10153000F3002091F200009719F02830310558F09F
:1015400041E02830310509F040E02091E8002E7795
:101550002093E800D0CF41914093F10001972F5F95
:101560003F4FE9CF8091AF02811541F0853041F0C6
:101570008091E80083FFC3CF81E0089582E0089561
:1015800083E008958091920287FF13C08091E80064
:1015900082FF06C08091E8008B778093E800089571
:1015A0008091AF028111F2CF08958091AF02811531
:1015B000D9F38091E80080FFF8CF8091E8008E7722
:1015C000ECCF2091E4003091E50095E6A90120914F
:1015D000EC00822F817020FF06C08091E80080FF20
:1015E00006C080E008952091E80022FD1AC0809195
:1015F000AF02811589F0853089F08091EB0085FD7F
:101600000FC02091E4003091E50042175307F9F232
:101610009A95E1F684E0089582E0089583E00895C4
:1016200081E00895E8EDF0E080818E7F8083109264
:10163000E2001092DA001092E100A0EEB0E08C918E
:1016400081608C9380818F77808319BCA7EDB0E097
:101650008C918E7F8C9380818F7E808310929102FB
:101660000895982F9093E900891771F07091EC001C
:101670002091ED005091F00021FD09C09F5F97304F
:1016800089F78093E9000895762F242F50E0309158
:10169000EB003E7F3093EB003091ED003D7F3093C7
:1016A000ED003091EB0031603093EB007093EC0073
:1016B0002093ED005093F0002091EE0027FDDECF47
:1016C0000895A0E0B0E0E7E6FBE00C94CA25C8ED81
:1016D000D0E088818F7E8883E7EDF0E080818160B3
:1016E000808384E082BF81E08093910288818E7F35
:1016F000888302EE10E0F80110821092DA0081EE89
:10170000C82ED12CF601108288818F77888388813A
:101710008068888388818F7D888319BC1092AF028E
:10172000109290021092AE0210928F0290EEE92E6B
:10173000F12CF70180818B7F808388818160888391
:1017400042E060E080E08DDFF60180818E7F808363
:10175000F801808181608083808188608083F701C7
:1017600080818E7F8083888180618883CDB7DEB75A
:10177000E8E00C94E625E09143059091420527E0CE
:10178000E91302C080E00895AE2FB0E02E9FF00173
:101790001124EC5BFA4F3181361306C030813813C7
:1017A00003C03581341304C0FD013196E770E8CFE2
:1017B00081E008959FB7F89410929B029FBF90918B
:1017C000AF02943009F047C02091E9009091EC00FD
:1017D0002F70979599279795922B23E02093E900F6
:1017E0002091EB0020FF34C02091EE0027FF30C095
:1017F00020919A02211521F02091E80025FF28C0B0
:1018000010929A0226E03091E80035FF14C08093D0
:10181000F1008091E80085FD27C08091E80080FFFD
:10182000FCCF8091E8008E778093E8009F709093C2
:10183000E90080E008953091AF02343049F43091EE
:10184000EB0035FD05C02A9541F481E080939A02B2
:101850009F709093E9008FEF0895EFE9FFE03197D3
:10186000F1F700C00000CFCF8FB7F89421E02093AC
:101870009B028FBFDBCF0F931F93CF93DF938B011F
:10188000EA019091AF02943051F58093E9008FEF17
:101890009091E80095FD06C095ED9A95F1F700004E
:1018A0008A95B1F78091E80085FF19C08ADE811121
:1018B00011C08091E80085FD06C08091E8008E7718
:1018C0008093E800F3CFF80181918F018093F100BC
:1018D000219779F78091E8008E778093E800DF9177
:1018E000CF911F910F910895CF93DF93D82FC92FD8
:1018F00048E050E0682F792F81E0BDDF88E0ED2FD0
:10190000FC2FACE9B2E001900D928A95E1F7DF91EE
:10191000CF910895BC0140E250E082E0ACCFBC0121
:1019200046E050E082E0A7CF809103011F928F93A1
:10193000809102011F928F93809101011F928F93DA
:10194000809100011F928F93809116011F928F93B7
:10195000809115011F928F9388EF93E09F938F934F
:1019600088D98DB79EB70E960FB6F8949EBF0FBE5E
:101970008DBF089590911901913091F0AEE5B2E0DC
:10198000EFEF90E02D91821751F0EF3F19F4211104
:1019900001C0E92F9F5F9630A9F7EF3F49F5089501
:1019A00090913F0597FFEACFE82FE695E695E695FB
:1019B000803F70F4F0E0EC59FD4F877021E030E09B
:1019C00001C0220F8A95EAF78281822B82830895D3
:1019D0009091360590FFE3CF1F928F938BE893E0B1
:1019E0009F938F9346D90F900F900F900F9008956B
:1019F0000E2E000CFF0BE45AFD4FE8CF9091190119
:101A0000913021F490913F0597FD0CC0EEE5F2E096
:101A10009191891302C0DF011E9252E0E436F5076E
:101A2000B9F70895E82FE695E695E695803F90F49E
:101A3000F0E0EC59FD4F877021E030E0A90102C0D1
:101A4000440F551F8A95E2F7CA0180959281892338
:101A5000828308959091360590FFE3CF1F928F9374
:101A60008DE693E09F938F9304D90F900F900F9082
:101A70000F900895893209F46AC010F5833109F492
:101A80007DC040F4873009F4D6C08B3051F188E92D
:101A900092E0E5C0843109F45AC092EE980F9A3072
:101AA000B0F78D5180938B02843009F070C081E0D3
:101AB00091E090938A028093890281E491E08BC047
:101AC000803509F4D0C030F4883359F08F34F9F6FA
:101AD0008AE0CAC0813509F4DFC08235C1F681E0F1
:101AE000C3C08DEB92E09F938F93C3D81DDF1F92ED
:101AF00081E08F931F9288E08F9386EB91E09F9314
:101B00008F93B7D88DB79EB708960FB6F8949EBF3F
:101B10000FBE8DBF20918B02211509F4C6C08091A4
:101B2000870290918802009711F48BE191E09F93D6
:101B30008F931F922F9386E892E09F938F9399D86B
:101B40000F900F900F900F900F900F9008958AEBC9
:101B500092E09F938F938DD80F900F9080918B027E
:101B6000811509F4AAC010928B0210928A02109279
:101B700089021092880210928702CCCF8CEA92E000
:101B80009F938F9376D8D0DE0F900F90C3CF68F4D9
:101B90008230B1F18330B9F480E091E090938A0211
:101BA0008093890284E391E016C0853091F18630FC
:101BB000C9F110928B0289EA92E09F938F9359D8D2
:101BC0000F900F900CC085E191E090938A02809372
:101BD00089028FE191E0909388028093870280913F
:101BE0008B02811509F496CF1F928F9385EA92E0BC
:101BF0009F938F933ED80F900F900F900F908ACFA6
:101C000086E191E090938A028093890288E291E0D4
:101C1000E2CF82E091E090938A028093890280E58E
:101C200091E0D9CF83E091E090938A02809389027A
:101C300083E691E0D0CF81E08093150184E1809329
:101C400016018AE0809300018EE18093010188E013
:101C50008093020188E2809303018BE992E09F93D5
:101C60008F9307D891CF86EFE0918902F0918A0295
:101C70003097C1F02081082E000C990B820F911D26
:101C8000811521E0920754F497FD0AC080831F92CA
:101C90008F9382E992E0ACCF8FEFE6CF8FEFF6CF54
:101CA00080E0F4CF8FE892E0DACF82E892E09F9371
:101CB0008F930E9439060F900F900895CF93C82FED
:101CC0008091400582FB992790F99C17F1F0C0FBA9
:101CD00082F98093400560913F057091400584E052
:101CE00090E00E94502682E073D88091360580FFF4
:101CF0000CC01F92CF9387E89AE09F938F930E9426
:101D000039060F900F900F900F90CF910895EF929A
:101D1000FF920F931F93CF93DF938091190181302E
:101D200009F06AC080913F0587FF66C068D880933C
:101D3000650240E250E06CEE74E084E692E00E94BE
:101D40001C26892B09F453C080E2E4E6F2E0ACEEF5
:101D5000B4E001900D928A95E1F7E0910C05F091C5
:101D60000D05309709F443C00480F581E02D3097CC
:101D7000F1F186E08093640284E692E00995809117
:101D8000360582FF34C080FF0EC0809165021F922D
:101D90008F9381E59AE09F938F930E9439060F906D
:101DA0000F900F900F90C4E6D2E00BE41AE0809100
:101DB000360580FF0BC08A811F928F931F930F936C
:101DC0000E9439060F900F900F900F90219682E09D
:101DD000C238D80761F78091360580FF08C089E4D2
:101DE0009AE09F938F930E9439060F900F90CDB782
:101DF000DEB7E6E00C94E82502D880935C0248E068
:101E000050E06EE075E08CE592E00E941C26892B84
:101E100071F388E0ECE5F2E0AEE0B5E001900D9200
:101E20008A95E1F7E0910C05F0910D053097F9F2F4
:101E30000280F381E02D3097D1F28CE592E0099594
:101E40008091360582FFD3CF80FF0EC080915C0267
:101E50001F928F938EE69AE09F938F930E9439068C
:101E60000F900F900F900F90CCE5D2E082E6E82E15
:101E700082E0F82E08E61AE08091360580FF0BC05C
:101E80008A811F928F931F930F930E9439060F90A0
:101E90000F900F900F902196EC16FD0669F7809138
:101EA000360580FFA4CF86E69AE09BCF811531F0FE
:101EB00090913705892B8093370529CF0895811597
:101EC00019F00E94260723CF089563EE7EEF80E08D
:101ED00090E00E94502660E082E090E00E9436266A
:101EE00081E090E090933B0580933A0561E083E0C8
:101EF00090E00E94362660E074E184E090E00E9469
:101F0000502640E050E0BA018FE090E00E94482661
:101F100040E050E0BA0183E190E00C944826AB0128
:101F200024E630E0BC0188E70E941A259C0181E08C
:101F3000232B09F080E008958091E4048115B1F02D
:101F40008091E304811591F062E070E084EB91E010
:101F5000E6DF811109C08FE991E09F938F930E9482
:101F600039060F900F9008951092E3040895809120
:101F7000E404811531F1A0DADC01CB01805A9541EE
:101F8000AF4FBF4F8093DF049093E004A093E10430
:101F9000B093E2048091E304811113C062E070E029
:101FA0008DE991E0BCDF811109C089E891E09F9340
:101FB0008F930E9439060F900F90089581E08093CF
:101FC000E30408951F921FB61F9211248F939F93CD
:101FD000AF93BF938091AD02811113C08091A40291
:101FE0009091A502A091A602B091A7024196A11DD1
:101FF000B11D8093A4029093A502A093A602B09372
:10200000A702BF91AF919F918F911F901FBE1F900C
:1020100018952FB7F8948091A4029091A502A091F1
:10202000A602B091A7022FBF0895CF93DF93EC01D2
:10203000F0DF8C1B9D0BDF91CF91089580913605C9
:1020400083FF96C080ED93E09F938F930E943906A3
:1020500080912F051F928F938BEC93E09F938F932A
:102060000E94390689EC93E09F938F930E94390672
:1020700080913005282F082E000C330B3F938F934F
:1020800086EC93E09F938F930E94390684EC93E053
:102090009F938F930E94390680913105282F082E37
:1020A000000C330B3F938F9381EC93E09F938F93BE
:1020B0000E9439068FEB93E09F938F930E9439061D
:1020C00080913205282F082E000C330B3F938F93FD
:1020D0008CEB93E09F938F930E9439068AEB93E0F9
:1020E0009F938F930E94390680913305282F082EE5
:1020F000000C330B3F938F9387EB93E09F938F9369
:102100000E94390684EB93E09F938F930E943906D7
:102110008DB79EB780960FB6F8949EBF0FBE8DBF49
:1021200080912C051F928F9381EB93E09F938F9367
:102130000E9439068FEA93E09F938F930E9439069D
:1021400080912D051F928F938CEA93E09F938F933C
:102150000E94390689EA93E09F938F930E94390683
:102160008DB79EB70C960FB6F8949EBF0FBE8DBF6D
:1021700050DF2091300530913105232B211521F0BE
:102180008093E7049093E804209132053091330561
:10219000232B211521F08093E5049093E604E09130
:1021A0000C05F0910D05309759F00680F781E02D70
:1021B000309731F082E080932E058EE295E009950C
:1021C0000895611509F441C0E3E3E80FE33148F4F1
:1021D000F0E0EA59F94D0C941626DDD881958093EC
:1021E00031052CCFD8D8FBCFD6D881958093300538
:1021F000F8CFD1D8FBCF15D980933205F2CF11D9C2
:102200008195FACF0ED9819580933305EACF09D90C
:10221000FBCF815D990B21E030E001C0220F8A9550
:10222000EAF780912F05822B80932F05DACF8091DA
:102230002D05816080932D05D4CF80912D0582607E
:10224000F9CF80912D058460F5CF409130058D3C0C
:1022500059F48091310587FF0DC010923105411569
:1022600059F410922C0508C08E3C81F48091310500
:1022700018169CF3411581F0809132059091330539
:10228000892B8111AECF10922B05ABCF8F3C41F43F
:1022900047FFF0CF10923005809131058115E0CFD6
:1022A000803D19F41416B4F3E5CF90913205893DC1
:1022B00029F41916FCF610923205DCCF8A3D19F488
:1022C00097FFD8CFF8CF909133058B3D29F497FF36
:1022D000D1CF10923305CECF8C3D19F41916CCF323
:1022E000C9CF9FE2980F983090F4815D990B21E05F
:1022F00030E0B90102C0660F771F8A95E2F7CB0183
:10230000809590912F05892380932F05B3CF8D3D24
:1023100031F480912D058E7F80932D05ABCF8E3DBE
:1023200021F480912D058D7FF7CF8F3D09F0A2CF4D
:1023300080912D058B7FF0CF811509F437C082384D
:1023400049F4A8D881FF32C089E314DBE0DC89E3DB
:1023500055DBDDCC833841F49DD880FF27C083E571
:1023600009DBD5DC83E5F4CF843841F493D882FFD0
:102370001DC087E4FFDACBDC87E4EACF9CEF980F3F
:10238000913A30F390E2980F983050F4877091E0D2
:1023900001C0990F8A95EAF7892F0E942607D9CFA5
:1023A00093E3980F933110F460E00BCF08951092EF
:1023B0003705809119018130E1F480913F0587FF55
:1023C00018C0E6E6F2E08EE1DF011D928A95E9F79A
:1023D000109241059CDC86E0EEE2F5E0DF011D9203
:1023E0008A95E9F710922C0510922B0510922D0575
:1023F00025CEEEE5F2E086E0E7CFD9DF2FEF84E3EC
:102400009CE0215080409040E1F700C0000088E14E
:102410009AE00FB6F894A895809360000FBE909351
:102420006000FFCFC4DF2FEF84E39CE021508040A9
:102430009040E1F700C0000087E797E7909301081C
:102440008093000888E19AE00FB6F894A8958093ED
:1024500060000FBE90936000FFCFCF93C82F1F92F4
:102460008F9383EF93E09F938F930E94390681E0CF
:1024700090E002C0880F991FCA95E2F70E945206A9
:1024800096DF0F900F900F900F90CF910895A0E0DE
:10249000B0E0EDE4F2E10C94CB25EBEFE80FEF3385
:1024A00008F051C1F0E0E758F94D0C94162683E08E
:1024B00090E00E9429261F921F921F928F938DEB0E
:1024C00095E09F938F930E94390682E090E00E94EE
:1024D000292683FB992790F91F929F9382FB9927C6
:1024E00090F91F929F9381FB992790F91F929F93D8
:1024F000982F91701F929F931F928F9384E795E07E
:102500009F938F930E94390684E090E00E943126C9
:1025100093FB222720F91F922F9387FB222720F974
:102520001F922F9386FB222720F91F922F9385FB62
:10253000222720F91F922F9384FB222720F91F9234
:102540002F9383FB222720F91F922F9382FB2227B0
:1025500020F91F922F9391FB222720F91F922F938E
:10256000292F21701F922F9381FB222720F91F9280
:102570002F93282F21701F922F939F938F9385E77E
:1025800094E09F938F930E9439068DB79EB78C96E7
:102590000FB6F8949EBF0FBE8DBF81E0CDB7DEB7FA
:1025A000E7E00C94E7258AEB98E09F938F930E94D5
:1025B00039068BDC0F900F90F0CF8BED95E09F9359
:1025C0008F930E943906F6CF80913605807F8093E5
:1025D00036058CE99AE09F938F930E94390686EB2B
:1025E00098E09F938F930E94390681E080932A059B
:1025F0000F900F900F900F90D0CF8AE998E09F93A3
:102600008F930E9439060EDF90913605892F8E7FB9
:1026100090FF81608093360580FF03C08EE898E0CC
:10262000CECF81E898E09F938F930E9439068091E6
:102630003605817F80933605BDCF90913605892F71
:102640008D7F91FF82608093360581FF0AC084E709
:1026500098E09F938F930E943906809136058160A0
:10266000E9CF86E698E0ABCF90913605892F8B7F36
:1026700092FF84608093360582FF03C087E598E06F
:10268000E8CF87E498E09BCF90913605892F877F2C
:1026900093FF88608093360583FF03C08BE398E047
:1026A000D8CF8EE298E08BCF88E791E09F938F930D
:1026B00080E997E09F938F930E94390699CF0E94FB
:1026C0005C0AD62F172F082FF92EC0913F05C7FBA4
:1026D000CC27C0F9D0901701E09019010E944A0A56
:1026E000FF920F931F93DF931F92CF931F92DF925E
:1026F0001F92EF921F928F9383E997E09F938F939E
:102700000E9439068DB79EB70E960FB6F8949EBFFD
:102710000FBE8DBF42CF4BDE90913F05892F97FBB7
:1027200087F9805880933F0587FF03C084E298E0D3
:1027300046CF89E198E043CF80E08FDE2ECF8953EA
:10274000FCCF8D51FACF87E198E09F938F930E9441
:1027500039060F900F9080E021CFCF93C82F8115BD
:10276000A9F08238A9F40E944A0A81FD0FC089E3CA
:1027700001D9CDDA2FEF87EE93E0215080409040D1
:10278000E1F700C0000089E339D9C1DACF9108959B
:10279000833891F40E944A0A80FDF8CF83E5EAD895
:1027A000B6DA2FEF81EE94E0215080409040E1F7BF
:1027B00000C0000083E5E8CF843891F40E944A0A03
:1027C00082FDE4CF87E4D6D8A2DA2FEF81EE94E041
:1027D000215080409040E1F700C0000087E4D4CF52
:1027E0008CEF8C0F813A08F076C080912A058130F9
:1027F000F9F0823009F44EC0811143C08091370551
:10280000823221F48C2F43DE8111C0CF80911901D7
:10281000813009F441C0EEE5F2E08191C81709F476
:1028200056C022E0E436F207C1F78C2FA3D8ADCF13
:1028300080913705823231F3C43119F168F4CB301D
:1028400079F0C03109F183EC9AE09F938F930E9455
:1028500039060F900F90DACFC93299F0C83399F743
:102860008CE99AE09F938F930E94390685EC9AE059
:102870009F938F930E9439060F900F900F900F90A7
:1028800085CF10922A05C2CF82E080932A0588E383
:10289000F1D87CCF8C2FFCCF80913F0587FFBBCF39
:1028A000EC2FE695E695E695F0E0EC59FD4F828138
:1028B00090E04C2F477021E030E002C0220F331F20
:1028C0004A95E2F782239323892B09F4AECF8C2F0C
:1028D00095D81DDAAACF80E28C0F883068F4C770D3
:1028E00081E090E001C0880FCA95EAF7C0913705F2
:1028F000C82BC093370549CF83E38C0F833108F091
:1029000045CF61E08C2F5DDC41CFAAE2B0E0EBE87F
:10291000F4E10C94CF2582E992E0FC01019620912C
:10292000F100208322E08A399207B9F7809193025F
:10293000893009F459C0C8F4823009F4B5C0833035
:1029400009F484C0813089F18091E80083FFE9C0F7
:1029500080919202909193029A3008F0E2C0E92FA0
:10296000F0E0E854F94D0C9416268A3009F48BC037
:102970008B3051F780919202813231F7809196022B
:1029800090919702892B01F78091E800877F8093CF
:10299000E8000E94C20A81E090919402911101C066
:1029A00080E08093190103DDCFCF80919202813ABC
:1029B00059F68091E800877F8093E8008091960225
:1029C00090919702892B61F060E080E090E070E0E8
:1029D0000E94690A8091E8008B778093E800B4CF69
:1029E00068E08CE992E0F3CF80919202813209F0A5
:1029F000ABCF8091960290919702029708F0A4CFF6
:102A00008091E800877F8093E8008091E80082FF52
:102A100018C09091F3008091F200029731F48091F8
:102A2000F100813011F0863021F48091F100809323
:102A300018018091E8008B778093E8000E94C20A19
:102A400083CF8091AF028111E0CF7ECF809192023F
:102A5000813A09F079CF8091960290919702892B63
:102A600009F072CF8091E800877F8093E800809121
:102A7000E80080FFFCCF809119018093F1008091E4
:102A8000E8008E77D9CF80919202813209F05CCF35
:102A90008091E800877F8093E8000E94C20A8091BD
:102AA00095028093170150CF80919202813A09F0EC
:102AB0004BCF8091E800877F8093E8008091E80009
:102AC00080FFFCCF80911701D8CF803889F0823801
:102AD00041F5809196028F70873018F58093E90058
:102AE0008091EB0085FB882780F91092E90006C0F1
:102AF0008091AE02880F90918F02892B9091E8000F
:102B0000977F9093E8008093F1001092F1008091FC
:102B1000E8008E7723C0811116C080919402813025
:102B200011F18091E80083FF0AC08091E800877F5F
:102B30008093E8008091EB0080628093EB00AA967E
:102B4000E3E00C94EB25823061F7809194028115CB
:102B500089F01092E9008091E800877F8093E80077
:102B60000E94C20ADECF81E0933009F080E08093BA
:102B7000AE02EFCF809196028F702FEF280F263094
:102B800080F68093E9002091EB0020FFE2CF9330A4
:102B900031F48091EB0080628093EB00DACF90916A
:102BA000EB0090619093EB0021E030E0A90102C0BE
:102BB000440F551F8A95E2F74093EA001092EA000D
:102BC0008091EB008860E8CF8111ABCF1091940227
:102BD0001F778091E3008078812B8093E3008091C0
:102BE000E800877F8093E8000E94C20A8091E80095
:102BF00080FFFCCF8091E30080688093E30083E056
:102C0000111101C082E08093AF028BCF80588230D7
:102C100008F087CF80919402909195028C3D53E00B
:102C2000950799F583E08A838AE289834FB7F89400
:102C3000DE01139620E03EE051E2E32FF0E05093F6
:102C40005700849120FF03C082958F703F5F8F7083
:102C50008A30C8F0895C90E08D939D932F5F24317A
:102C600061F74FBF8091E800877F8093E8006AE2B8
:102C700070E0CE0101960E94690A8091E8008B778E
:102C80008093E8004ECF805DE6CF292F3327233095
:102C9000310509F44EC078F52130310509F47DC0C5
:102CA00084E590E0EDECF2E02230310509F039CF17
:102CB0002091E800277F2093E8002091980230912E
:102CC00099028217930708F49C0140E02115310511
:102CD00009F068C0411166C08091E80082FDCDCF47
:102CE0008091AF02811549F2853039F28091E80078
:102CF00083FFF2CFC2CF809196029091970221324A
:102D0000310509F43BC02232310509F00ACF833086
:102D1000910508F006CFFC01EE0FFF1FE75CFD4FA9
:102D20000190F081E02D8A5C9D4FDC018C9190E058
:102D300011C09C013327813089F022303105B1F078
:102D4000232B09F0EECEE5E5F3E0E4918E2F90E041
:102D5000E5E5F3E0009709F4E4CEAACFE5E4F3E07B
:102D6000E4918E2F90E0E5E4F3E0F4CFE3E3F3E0C9
:102D7000E4918E2F90E0E3E3F3E0ECCF8330910514
:102D800008F0CFCEFC01EE0FFF1FE15CFD4F01907C
:102D9000F081E02D89E090E08BCF82E190E0E1E2EC
:102DA000F3E086CF8091AF02811509F466CF8530BC
:102DB00009F463CF8091E80083FD5FCF8091E80044
:102DC00082FD8ACF8091E80080FF80CF9091F30050
:102DD0008091F2002115310519F08830910550F0ED
:102DE00041E0089709F040E08091E8008E778093F9
:102DF000E8006CCF44914093F100319621503109A5
:102E00000196E8CF803809F08CCE8091E800877F6A
:102E10008093E800809190028093F10078CE811138
:102E200080CE10919402123008F07BCE8091E800A1
:102E3000877F8093E800109390020E94C20A1115C8
:102E4000D1F084E08093AF0242E061EC81E00E9427
:102E5000310B42E261EC82E00E94310B42E261EC14
:102E600083E00E94310B8091AF02843051F482E004
:102E700080931A0156CE8091E30087FDE2CF81E076
:102E8000E1CF81E0F5CFEF92FF920F931F93CF93A5
:102E9000DF93C62FD42F122F8115A1F06093340534
:102EA000B8D890938D0280938C02C77081E001C0E6
:102EB000880FCA95EAF70E94560FCDB7DEB7E6E055
:102EC0000C94E82580913405681332C0E0908C02A0
:102ED000F0908D029ED88E199F09883C910540F58F
:102EE00000E20D0FCD17A9F0C770FF24F3948F2DCA
:102EF00001C0880FCA95EAF70E945F0F083048F4B6
:102F00008D2F877001C0FF0C8A95EAF78F2D0E94E4
:102F1000560F812F22DC812F0FDA083070F6D77020
:102F200081E001C0880FDA95EAF70E945F0FC5CFF4
:102F3000C77081E001C0880FCA95EAF7F6CFA0E01C
:102F4000B0E0E5EAF7E10C94C8255C01FC0184815E
:102F5000811529F161E0C5010E945109EC01F501DB
:102F60008581FE01E851FC47E730F105A0F5EE53FD
:102F7000F94D0C94162626E241EE61EE84DF809135
:102F80003E058770811559F0F5018581811539F06D
:102F90008091400582FF03C082E00E94E806CDB721
:102FA000DEB7EAE00C94E42527E245EE65EEE6CFD5
:102FB00026E241EE60EEE2CF27E245EE64EEDECFA0
:102FC00026E241EE62EEDACF27E245EE66EED6CF9C
:102FD00028E241E0EBCF811509F488C31092340553
:102FE0009E0130572332310508F08EC384E090E013
:102FF0000E9431269093400580933F05FE01E150E9
:10300000F047E232F10520F4E753F94D0C9416260F
:1030100080913F05816080933F0560913F057091ED
:10302000400584E090E00E945026C1D9A8CF80914D
:103030004005886080934005F0CF80913F05826015
:10304000EACF80913F058460E6CF80913F0588609C
:10305000E2CF809140058160EDCF80914005826094
:10306000E9CF80913F058061D6CF80913F05806296
:10307000D2CF80913F058064CECF99D980913F0512
:103080008068C9CF80913F058C60C5CF8091400595
:103090008360D0CF80913F058E7FBDCF809140056A
:1030A000877FC8CF80913F058D7FB5CF80913F0549
:1030B0008B7FB1CF80913F05877FADCF8091400559
:1030C0008E7FB8CF809140058D7FB4CF80913F0532
:1030D0008F7EA1CF80913F058F7D9DCF80913F0551
:1030E0008F7B99CF64D980913F058F7794CF809162
:1030F0003F05837F90CF809140058C7F9BCF80914F
:103100003F05992782FF939590FB82F990FB83F905
:1031100082CF80914005982F909590FB80F990FB8D
:1031200081F988CF90913F05892F8F7B96FF80642E
:1031300072CF3DD990913F05892F97FB87F9805831
:103140006ACF61E08EE090E00E94362666CF60E0B4
:10315000F9CF90913F05892F8F7E94FF80615BCFDF
:1031600090913F05892F8E7F90FF816054CF909181
:103170004005892F877F93FF88605CCF89E2D6C2A4
:1031800089E2BFC29E01205E324520323105A8F49B
:1031900081112AC0CF7181E090E09C0102C0220F12
:1031A000331FCA95E2F7E901622F83E090E00E94A5
:1031B0003626CE010E945206E2CE8115A9F0C33018
:1031C0003CE7D30709F49AC008F073C0C1309CE70C
:1031D000D90709F499C0C230ECE7DE0709F478C0DA
:1031E000C115DC4709F473C0F5018581E080F180E9
:1031F000811509F495C0C7010E941F09C82F682FC7
:10320000C7010E947A06B7018C2F0E942E070E94E8
:103210003608182FC92FF501D580E6800E2D0295AE
:103220000F7080913E058770811501F1CD2CD1146E
:10323000F1F0892F807F803461F080E2810F883047
:10324000A8F0892F807E803221F4123078F00115A9
:1032500069F08091400582FF09C082E00E94E80683
:1032600080913E058770CC24C3948111C12C8C2F92
:1032700082958F70883009F428C108F071C08430BD
:1032800008F053C0DC2FDF70823008F47AC0C07FB2
:10329000C03211F0D295D07F111509F4A8C01130B9
:1032A00009F4F0C0D11409F4FAC0011509F4BCC046
:1032B0007DC0CB352CE7D20789F1CC353CE7D3076D
:1032C00021F1CA35DC4709F08FCF81E024C0AAD8AC
:1032D00090913605892F8E7F90FF8160809336050F
:1032E00080FF09C08BED9AE09F938F930E9439066F
:1032F0000F900F9044CE89EC9AE0F6CF6FEF7FEFFE
:1033000080E090E00E94502678D88091400500240B
:1033100082FF0394802D0E945E0E66CF80E0FBCF7B
:10332000C7010E94AC06C82F6ECF853009F4C8C013
:10333000C11409F401C180913E0580FDFDC0F50175
:1033400015828695869586950E945C06C501F7DDF7
:1033500080913E058695869586950E946A06ECC00A
:10336000893009F442C18A5F8F70823008F7123FBA
:1033700009F04CC18C2F8F71D11045C10E945C06A1
:10338000D9C0C03110F0D295D07FD114B9F0D11589
:1033900069F080E2810F883010F0111109C080912E
:1033A00037058D2B809337050E94870E812F2FC004
:1033B000809141058D2B80934105F6CF812F0E948E
:1033C0009C11D11509F4B4CF80E2810F883010F040
:1033D000111104C08D2F0E94260706C0D095809140
:1033E00041058D23809341050E94870EA1CF8091D6
:1033F000400582FD15C0D11461F0D11539F08091DE
:1034000037058D2B809337050E94870E80E0A5D964
:103410008FCF80E00E949C11D11509F489CFDACFBB
:10342000D114A1F0011104C08D2F0E94560F80CF3E
:10343000013009F07DCF809138059D2F9823D91751
:1034400009F476CF8D2B8093380572CF011170CFA0
:103450008D2F0E945F0F909138058D2F8923811544
:1034600029F08D2F80958923809338058091390527
:103470009D2F9823911509F45BCFD095D823D09335
:10348000390556CFD11421F0063008F051CFCCCFFA
:10349000053008F04DCF8D2F0E945F0F49CF0115E9
:1034A000D1F3193349F4FFEF27EE33E0F150204018
:1034B0003040E1F700C00000812F0E949C1138CFFE
:1034C0006D2D812F0E94E11033CF8C2F83708111DD
:1034D00046C0D1102FC0412F429546954770440FEA
:1034E000440F212F2F7030E0042E02C0220F331F13
:1034F0000A94E2F780E090E014FF09C08FE090E0CA
:1035000002C0880F991F4A95E2F780959095C6955D
:10351000C695C370C230D1F0C330A9F040913A05CE
:1035200050913B05C13069F0822B932B8423952366
:103530000E9452060E944A0A60E0C5010E94510999
:103540002ECD242B352B822B932BF2CF822B932B3A
:1035500020913A0530913B0582279327E9CFD1147A
:1035600091F1C0FFE7CF412F429546954770440F38
:10357000440F212F2F7030E0042E02C0220F331F82
:103580000A94E2F780E090E014FF09C08FE090E039
:1035900002C0880F991F4A95E2F780959095C695CD
:1035A000C695C370C230C1F0C33099F040913C055C
:1035B00050913D05C13059F0822B932B84239523E4
:1035C0000E945706B7CF823008F4B4CFCCCF242B5B
:1035D000352B822B932BF4CF822B932B20913C0500
:1035E00030913D0582279327EBCFCF70D11439F06E
:1035F0008C2F0E945C06812F0E94560F9BCF812F3B
:103600000E945F0F8C2F0E946A0694CF68F4103FCF
:10361000C1F0113F89F0D11409F454C0011509F427
:103620004EC0812F9AD886CF133F19F1143F99F7D6
:103630009091400592FD2BC08C2F8F71D11419F3FE
:103640009DCED114A1F0053008F074CFCF7181E088
:1036500090E0FC0102C0EE0FFF1FCA95E2F7EF01F8
:1036600080913C0590913D058E279D27A9CF06307E
:10367000EBCF80E090E0D11409F4A2CFCF7181E0CC
:1036800090E002C0880F991FCA95E2F799CFD11434
:1036900061F08C2F8F7192FF71CE982F990F990F37
:1036A000990F936090933E0569CE81E00E94E806F1
:1036B000023008F43FCF82E00E94E8063BCF8C2F17
:1036C0008F715CCE011579F0193349F4FFEF27EEC5
:1036D00033E0F15020403040E1F700C00000812F7E
:1036E0000E949C1127CF8C2F8F718DCFC631FCE7A4
:1036F000DF0709F047CD80913505811509F440CDEC
:1037000085E30E94FE0C14C0C6312CE7D20709F0F5
:1037100039CD809137058A7A91E0811101C090E01E
:1037200090933505811509F429CD85E30E94BA0CE3
:103730000E94870E24CC80918205803178F480919C
:103740008105811559F0E0914305209142053091A2
:103750007D0540917C0557E02E1301C008956E2F22
:1037600070E05E9FF0011124DF01AC5BBA4F14964C
:103770008C911497811551F111968C9111978313A7
:1037800025C08C91841322C015968C9115978111B8
:103790001DC012968D919C91A0917E05B0917F05E0
:1037A0008A1B9B0B883C910588F4809182058F7061
:1037B000806180938205E65BFA4F80818F70806123
:1037C00080838CE795E0BBDB0C94DE06FB01319631
:1037D000E770C2CFADE0B0E0E0EFFBE10C94C525AF
:1037E0008C0186E0F801DE01189601900D928A9511
:1037F000E1F7F801F580C4808CE7882E85E0982EEB
:103800007090800571101FC0C114D1F0F11409F43B
:1038100015C1C8010E947909811509F40FC187E01B
:10382000F801D40101900D928A95E1F7F1E0CF12F1
:1038300006C080917C0590917D050E946D097BDF1B
:10384000FF24F39453C0E080A280B380D090810520
:1038500080917E0590917F059501281B390BD1142D
:1038600009F4B5C0283C310508F08DC0C11441F3FE
:1038700090917D05C18080918205803108F056C00D
:10388000C91213C090917C059E110FC0F11048C061
:103890008F708061809382058CE795E050DB80918A
:1038A0008205F8018683F12C21C0F11039C040E077
:1038B0006C2D8E2D0E94BB0B40E06C2D8E2D0E9436
:1038C000BB0BF82E8111EFCF888599850E946D0979
:1038D000292F22952F70903470F49F70223098F029
:1038E0009115A9F0F8019681903188F48F2D2D96CD
:1038F000EDE00C94E1252A5F2F70223060F0C801C2
:103900001EDBFD2CF3CF911511F0811579F3805E4C
:10391000883060F3F4CF803F48F3815F8330F9CF84
:1039200080918205816080938205BDCFC91207C056
:1039300090917C059E1103C0F11409F469C0C8017F
:103940000E947909811509F479C0F11409F476C04F
:1039500080918205803270F020917C0530917D0548
:103960003A832983BC82AB827D821E828F83CE0103
:103970000196E5DA87E0F801ACE7B5E001900D9239
:103980008A95E1F75CCF80918205803148F48CE71D
:1039900095E0D5DA87E0F40111928A95E9F783CFB3
:1039A000C11409F44DCF20917D0591812913C7CF12
:1039B00090917C059E11C3CFF110C1CF8683C801C1
:1039C000BEDA87E0F40111928A95E9F739CF283CF5
:1039D000310500F7C11409F433CFF11479F1909156
:1039E0007D058181981320C080917C058E111CC0BB
:1039F0008091820580FD0FC0803168F08683807FD2
:103A0000803F39F08681982F907F905F8F70892B4F
:103A10008683C80194DA87E0F801ACE7B5E001904D
:103A20000D928A95E1F70CCFC8010E9479098111A6
:103A3000A1CF80918205816080938205C8017FDAE1
:103A4000FFCEABE1B0E0E7E2FDE10C94CE254E8B7A
:103A50005F8B688F798F8A8F192F9B8F91111092AE
:103A600041051D8A86E0FE017696DE011F960190D3
:103A70000D928A95E1F70A8D011561F00B8B1C8B75
:103A800061E0CE010F960E94510961E0CE010F96D0
:103A90000E9451090B8B1C8B87E0FE013F96DE01D3
:103AA000189601900D928A95E1F7CE01089692DE64
:103AB000811128C0209142053091430587E0FE0125
:103AC0003896DE01119601900D928A95E1F78C856A
:103AD0008115C1F0822F90E00196877099273817E1
:103AE0001906D9F097E0929FD0011124AC5BBA4F30
:103AF000FE01319601900D929A95E1F7809342056F
:103B00000E94DE0617E080914305909142058913DB
:103B100012C06B96E4E00C94EA250E94D711109233
:103B200042051092430587E0ECE7F5E0DF011D92C6
:103B30008A95E9F7E7CF189FC00111248C5B9A4F53
:103B400049DE811531F38091430590E0019687703D
:103B5000992780934305D7CFA6E0B0E0E2EBFDE1E3
:103B60000C94CE250E9409108C018091EA0490915A
:103B7000EB048017910771F019821A820E940910D4
:103B8000BC0149815A8180E090E05BDF1093EB0437
:103B90000093EA042696E4E00C94EA25A5E0B0E060
:103BA000E3EDFDE1F0C7FE01319685E0DF011D92F6
:103BB0008A95E9F785E4E82E82E0F82E8F019AE4F1
:103BC000C92E92E0D92E3F01AA24A394B12C32E54C
:103BD000832E32E0932EF70181917F018F3F09F40C
:103BE0003EC0F894E82FE295EF70F0E021A18F70CD
:103BF000A50102C0440F551F8A95E2F7CA01922F12
:103C0000982B91A392A18095892382A3789400C0D8
:103C1000EAE4F2E031E0512C21912F3F79F0A22F1C
:103C2000A295AF70A05EB0E08C9190E02F7002C0C2
:103C3000959587952A95E2F780FF33C080E0582A52
:103C4000330F8E169F0641F7F70182918F3F11F0D7
:103C50000E94A40950EA5A95F1F7D8015C920F5FCF
:103C60001F4FCE14DF0409F0B6CF45E050E0B3019A
:103C700088EA92E0E1D7892BB1F085E0F301A8EA68
:103C8000B2E001900D928A95E1F781E0809386027F
:103C90000E94091090938502809384022596EFE09C
:103CA0008EC7832FCCCF809186028115B9F3009106
:103CB0008402109185020E940910801B910B0597C8
:103CC00068F345E050E068EA72E080EB92E0B4D738
:103CD000892B49F085E0E8EAF2E0A0EBB2E0019040
:103CE0000D928A95E1F710928602D8CFCDB7DEB754
:103CF0002A970FB6F894DEBF0FBECDBF85B7806898
:103D000085BF85B7806885BF84B7877F84BF0FB6BE
:103D1000F894A8958091600088618093600010926B
:103D200060000FBE80E890E00FB6F89480936100C9
:103D3000909361000FBE81E080931A018AED9BE0B1
:103D400090935B0280935A020E94120B0E94610BB7
:103D50008091E20084608093E20078948091AF02C9
:103D6000811599F08091E9001091EC008F70179502
:103D700011271795182B1092E9008091E80083FD18
:103D80000E9485141F701093E90082E084BD93E0C7
:103D900095BD9AEF97BD80936E0005E412E0D801BF
:103DA0008D918D018F3F11F00E94A409B2E00A3479
:103DB0001B07A9F70AE412E0F80181918F018F3FF8
:103DC00011F00E94A409F2E002351F07A9F785E06F
:103DD000E0EBF2E0DF01282F1D922A95E9F7E8EAEF
:103DE000F2E0DF011D928A95E9F780E090E039D793
:103DF000833E9E4F11F00E94650F82E090E029D72C
:103E00008093360584E090E02CD790934005809312
:103E10003F0583E090E01DD790E00E94520610928B
:103E2000DB0480E88093BA0285D56BE070E083E51F
:103E300099E00E948F0F811126C087E399E09F933C
:103E40008F930E9439060F900F9084E091E0909339
:103E50000D0580930C05CE0101968F839887809184
:103E6000AF02853009F096C08091360580FF08C00A
:103E70008EE599E09F938F930E9439060F900F90E3
:103E800010E402E17EC08091DB0465E070E081FD1A
:103E900009C082E399E00E948F0F81110CC08CE071
:103EA00099E0CDCF87E099E00E948F0F811103C088
:103EB0008FEE98E0C4CF6DE070E082EE98E00E9453
:103EC0008F0F811103C08BEC98E0B9CF0E945C0A80
:103ED000DC01CB01805A9541AF4FBF4F8093DF0487
:103EE0009093E004A093E104B093E204EBEDF2E0E0
:103EF00080E092E0DF019C011D9221503040E1F70B
:103F00008FEF9FEF9093DE048093DD0481E0809338
:103F1000E4048093E3041092DC0497CF8091AF0215
:103F2000843029F10E949C0F1092AD0288E190E04C
:103F30000FB6F894A895809360000FBE10936000B0
:103F400083B7817F846083BF83B7816083BF7894A8
:103F5000889583B78E7F83BF0FB6F894A89580911C
:103F60006000886180936000109260000FBE16DED2
:103F7000E0EBF2E081918111AEC292E0E53BF907FE
:103F8000C9F78091AF02853009F4C8CF0E94D711DC
:103F90000E944A0A03DEE5EB4E2EE2E05E2EF0EBD5
:103FA0002F2EF2E03F2ED101F20191918D9122E06E
:103FB000EA3BF20709F47CC09817B9F38091360503
:103FC00081FF41C083E899E09F938F930E94390657
:103FD0000F900F9030EBC32E32E0D32E00E010E0B4
:103FE0004EE7842E49E0942E5BE7A52E59E0B52ECE
:103FF00066E7E62E69E0F62E74E7672E79E0772E05
:104000001F930F939F928F920E943906BF92AF9297
:104010000E943906D6018D916D010E9442061F92C1
:104020008F93FF92EF920E9439067F926F920E94C7
:1040300039060F5F1F4F0FB6F894DEBF0FBECDBF1E
:1040400005301105E9F610E0D1010D911D01F201D5
:10405000D1902F01D01621F1D026F12CEE24E3943B
:104060008D2D8E218115A9F0F9821A830E940910E5
:104070009C838B83F1E0FD8391E0802F8E21811161
:1040800001C090E09E8349815A816B817C818D8142
:10409000D8DCF394EE0C28E0F212E2CFF2010293A6
:1040A0001F5F153089F60E945C0ADD24D39404C09A
:1040B000981384CF51DDD12C8091E404811509F44B
:1040C000F8C08091DD049091DE04892B09F4D8C0FA
:1040D0008091DC048111D4C00E94B70F2091DD04CF
:1040E0003091DE042115310509F4CAC010E041E029
:1040F00050E0812F90E07A01012E02C0EE0CFF1CEF
:104100000A94E2F7B70162237323672B11F41F5F50
:10411000F0CF2091DB0420FF8FC0912F990F990FD2
:10412000990F37E0390F80E023E0909310018093DE
:104130001301309311012093140124E630E047E08D
:1041400050E06EE071E088E72BD4892B09F074C150
:1041500030E2139FA00111248091DB0480FF78C01E
:10416000EBEBF2E080E2DF011D928A95E9F7E6E5EC
:10417000F2E0FA87E98702E512E08AE5282E82E07C
:10418000382E97E0992E88248394A985BA856D915D
:10419000BA87A987F80181918F01840F952F911D0E
:1041A0009C0125523D4F2901E62FF0E0E554FD4FDB
:1041B00020E030E0692C621AC82C022E01C0CC0C21
:1041C0000A94EAF7520190E0D5018D915D018C21AE
:1041D000662D691B677070E0B82F062E01C0BB0FFB
:1041E0000A94EAF77195619571096770772701C0A4
:1041F00086956A95EAF78B2B6081682B60839F5FB9
:10420000983011F72F5F3F4F31962830310591F6E6
:10421000E985FA852E163F0609F0B7CF04E610E0CF
:1042200020E230E04BEB52E060E488E749D4892B90
:10423000D9F082E999E002C1969587959695879580
:10424000282F912F9295990F90763FE1390F6DCFDE
:1042500045525D4F04E610E020E230E060E488E77C
:104260002FD4892B09F0F1C0E094F0948091DD0403
:104270009091DE048E219F219093DE048093DD04D3
:104280008091E3048115A9F00E945C0A0091DF048B
:104290001091E0042091E1043091E204601B710B65
:1042A000820B930B6F3F7F4F8F4F9F4710F40E94FD
:1042B0009C0FD1100E94B70F86E0EEE2F5E0AF81CF
:1042C000B88501900D928A95E1F7B0902F05D090B6
:1042D000300510913105C0903205009133051092E0
:1042E0003005109231051092320510923305812F5E
:1042F0008D298115A1F0E090E704F090E8040E9478
:1043000009109C012E193F0990912C05911509F473
:104310009FC0809116018217130608F4A7C0802F52
:104320008C29811509F441C0E090E504F090E60481
:104330000E9409109C012E193F0990912B0591159F
:1043400009F4C4C02135310580F19F3F19F09F5F0A
:1043500090932B05C11459F00E94110A91E01C148E
:104360000CF09FEF899F802D112480933205011559
:1043700059F00E94110A91E010160CF09FEF899FEE
:10438000802D11248093330580913205811569F0C9
:10439000F0903305F11449F00E94BD098093320575
:1043A0008F2D0E94BD098093330580912F05B8128F
:1043B00019C080913005811511F08D1113C0209125
:1043C0003105211511F012130DC09091330591158F
:1043D00011F0091307C030913205311103C0822B4F
:1043E000892B81110E941E1086E0EF81F885AEE2D4
:1043F000B5E001900D928A95E1F70E944A0A182FC4
:104400008091E904181709F42ACD1093E9040E9459
:104410005C0A809136058570853009F020CD1F92A9
:104420001F9389EE99E09F938F930E9439060F9016
:104430000F900F900F9013CD86EC99E09F938F9380
:104440000E9439060F900F901BCF8DEA99E0F6CFAE
:10445000409115018AE0489FA0011124421753079B
:1044600008F05DCF9F5F90932C0502C09F3FD1F76E
:10447000D11459F00E94CB0991E01D140CF09FEF6C
:10448000899F802D112480933005111559F00E94C9
:10449000CB0991E011160CF09FEF899F802D11241C
:1044A0008093310580913005811509F438CFF09063
:1044B0003105F11409F433CF0E94BD098093300512
:1044C0008F2D0E94BD098093310529CF2B303105F6
:1044D00008F03DCF6ACF8091AE02811509F451CD2D
:1044E000A0E1A9BD09BD09B400FEFDCF8091D800AF
:1044F0008F7D8093D8008091E00082608093E000FF
:104500008091E00081FDFCCF0E94D7113ACD7894D4
:104510001F921FB61F9211248F939F93AF93BF9347
:104520008091A4029091A502A091A602B091A70249
:104530000196A11DB11D8093A4029093A502A093A2
:10454000A602B093A702BF91AF919F918F911F9048
:104550001FBE1F9018951F920F920FB60F92112435
:104560002F933F934F935F936F937F938F939F937B
:10457000AF93BF93EF93FF938091E10082FF14C04C
:104580008091E20082FF10C08091E1008B7F8093D8
:10459000E10020918E022F5F822F62E328D39115D4
:1045A00009F4DCC020938E028091DA0080FF2CC0D9
:1045B0008091D80080FF28C08091DA008E7F8093A0
:1045C000DA008091D90080FFFEC080E189BD82E1E0
:1045D00089BD09B400FEFDCF81E08093AF0289E57B
:1045E00093E09F938F930E943906809191020F90E0
:1045F0000F90811109C00E94120B0E94610B8091E3
:10460000E20084608093E2008091E10080FF22C09C
:104610008091E20080FF1EC08091E2008E7F809337
:10462000E2008091E20080618093E2008091D800F6
:1046300080628093D80019BC85E08093AF0281E648
:1046400093E09F938F930E94390683E080931A0131
:104650000F900F908091E10084FF37C08091E200BD
:1046600084FF33C080E189BD82E189BD09B400FEC9
:10467000FDCF8091D8008F7D8093D8008091E1009C
:104680008F7E8093E1008091E2008F7E8093E20034
:104690008091E20081608093E20080919002811518
:1046A00009F49FC084E08093AF0285E693E09F9376
:1046B0008F930E9439068091AF020F900F90843043
:1046C00009F097C082E080931A018091E10083FF96
:1046D00034C08091E20083FF30C08091E100877F89
:1046E0008093E10082E08093AF021092900280916B
:1046F000E1008E7F8093E1008091E2008E7F8093C5
:10470000E2008091E20080618093E20042E060E09C
:1047100080E00E94310B8091F00088608093F0006F
:1047200089E693E09F938F930E94390681E08093FE
:104730001A01809319010F900F90FF91EF91BF9193
:10474000AF919F918F917F916F915F914F913F9129
:104750002F910F900FBE0F901F90189510928E0200
:1047600080919B02811509F41FCF8091AF028430A4
:10477000B9F49091E9008091EC009F7087958827AB
:104780008795892B93E09093E9009091EB0090FF3F
:1047900004C09091EE0097FD08C08F708093E900EF
:1047A00010929B0201CF1092F1009091E80095FDCC
:1047B000FACF9091E80090FFF0CF9091E8009E77BB
:1047C0009093E800EACF19BC1092AF028DE593E018
:1047D0009F938F930E943906109291020F900F9031
:1047E00013CF8091E30087FF02C083E05CCF81E0BC
:1047F0005ACF81E068CF1F920F920FB60F9211240B
:10480000EF92FF920F931F932F933F934F935F93DA
:104810006F937F938F939F93AF93BF93CF93EF93B8
:10482000FF9309EE10E0F8018081C091EC008F70D9
:10483000C795CC27C795C82B108280EFE82EF12CA6
:10484000F7018081877F808378940E948514F80126
:104850001082F701808188608083CF70F801C08367
:10486000FF91EF91CF91BF91AF919F918F917F91E8
:104870006F915F914F913F912F911F910F91FF90F9
:10488000EF900F900FBE0F901F901895FF920F930F
:104890001F93CF93DF93182FEB011092BC0084EA93
:1048A0008093BC000E940910082FF92E8091BC0053
:1048B00087FF28C08091B900887F883029F08091D7
:1048C000B900887F803199F51093BB0084E880930C
:1048D000BC000E940910182F092F8091BC0087FF8F
:1048E0001EC02091B900287F80E090E0283199F027
:1048F00081E090E0203411F480E090E09195819582
:10490000910909C0802F9F2D0E941510C817D90743
:1049100068F68EEF9FEFCDB7DEB7E5E05AC1812F85
:10492000902F0E941510C817D907B8F6F2CF8FEF55
:104930009FEFF1CF1092B9008CE08093B8000895FA
:104940000F931F93CF93DF93EB018093BB0084E819
:104950008093BC000E940910182F092F8091BC0081
:1049600087FF11C02091B900287F81E090E02832B4
:1049700011F480E090E0919581959109DF91CF91BC
:104980001F910F910895CF3FDC0741F3812F902FA6
:104990000E941510C817D90708F78EEF9FEFEECFCA
:1049A000A0E0B0E0E5EDF4E2F0C0782EB62EA72E40
:1049B0006A01E9010E9409104C01C431D10510F1CE
:1049C000CF3FDC0719F1CE0164E170E0C5D0F62ECF
:1049D000E72E6F2D7E2D872D59DF8C01892BC9F491
:1049E000EB2CFA2CCE0CDF1CEC14FD0419F0011595
:1049F0001105C9F084E98093BC00C801CDB7DEB7CA
:104A0000EDE0DFC0FF24F394E12CE3CF85E0F82E46
:104A1000FBCFCF3FDC07E9F2C4010E941510C81795
:104A2000D907B8F6DDCFBE01F70181917F0188DF9C
:104A30008C01DACFA0E0B0E0EFE1F5E2A6C0782E7D
:104A4000B62EA72E6A0189010E9409104C0104317B
:104A5000110500F10F3F100701F1C80164E170E09A
:104A60007BD0EB01BE01872D11DF7C01892BB9F4CE
:104A7000CB2DDA2DCC0EDD1ECC15DD0519F0E114A1
:104A8000F104B9F084E98093BC00C701CDB7DEB76B
:104A9000EDE097C0C1E0D0E0E5CFC5E0FCCF0F3F2F
:104AA000100701F3C4010E94151008171907D0F66A
:104AB000DFCFFE018491B80143DF7C012196DCCF7A
:104AC000A0E0B0E0E5E6F5E25FC0682E962E5A0160
:104AD000690178010E940910782E892E0431110590
:104AE00018F10F3F100719F1C80164E170E034D0EC
:104AF000162F072F612F702F862DC8DEEC01892B12
:104B0000C1F0FFEFEF16FF06A9F3872D982D0E9445
:104B10001510E816F90670F784E98093BC00CE0101
:104B2000CDB7DEB7EEE04CC011E000E0E3CF15E01A
:104B3000FCCFB701892D04DFEC018501CA0CDB1C19
:104B40000C151D0549F3209739F7B701F80181913C
:104B50008F01F6DEEC01F4CFAA1BBB1B51E107C0AD
:104B6000AA1FBB1FA617B70710F0A61BB70B881FFD
:104B7000991F5A95A9F780959095BC01CD0108958C
:104B80002F923F924F925F926F927F928F929F925D
:104B9000AF92BF92CF92DF92EF92FF920F931F934B
:104BA000CF93DF93CDB7DEB7CA1BDB0B0FB6F894FC
:104BB000DEBF0FBECDBF09942A88398848885F843C
:104BC0006E847D848C849B84AA84B984C884DF80AD
:104BD000EE80FD800C811B81AA81B981CE0FD11D91
:104BE0000FB6F894DEBF0FBECDBFED010895992733
:104BF00078E0880F991F961708F0961B881F7A9502
:104C0000C9F78095089597FB072E16F4009406D0F7
:104C100077FD08D0A1DF07FC05D03EF49095819583
:104C20009F4F0895709561957F4F0895EE0FFF1F78
:104C30000590F491E02D0994FB01DC0104C08D91F5
:104C40000190801921F441505040C8F7881B990BFE
:104C50000895F999FECF92BD81BDF89A992780B544
:104C60000895A8E1B0E042E050E020C0262FF99975
:104C7000FECF92BD81BDF89A019700B4021639F0BB
:104C80001FBA20BD0FB6F894FA9AF99A0FBE08958C
:104C90000396272FECDFEADF252FE9DF242FE7CF6C
:104CA0000196272FE4DFE2CFDC01CB01FC01F9996B
:104CB000FECF06C0F2BDE1BDF89A319600B40D9268
:104CC00041505040B8F70895F894FFCFED10F2101E
:104CD000F410F9100911091109110911091109112B
:104CE00009110911FB10FF100211071117111D11F5
:104CF0002111FD12E41204135712A313A313DD12A2
:104D0000A313A3133413A31344138B13A313A313D9
:104D1000A313A3135F13A313A3135413A3131D13FC
:104D2000A313A313A113A113A113A113A113A113DF
:104D3000A113A113A1139C13A313FD12D312A31348
:104D4000A313A313A313A313A313A313A313A313B3
:104D5000A3139C13A313A313DD12A3139F139F1379
:104D60009F139F139F139F139F139F139F139C13B6
:104D700065158B1591158B159115E4150616911572
:104D800002170F17D817DC17BB17D417E017E41753
:104D9000E8174A18B01852181D1821185618251867
:104DA0005A1866183118A91835186A1839186E1863
:104DB00092183D1872189918421877187F182918F8
:104DC0005E182D18621846187B188918A118A718A4
:064DD00017184E18B71879
:104DD6000A1E0828590A740C8A0C8F0C680A0021CE
:104DE600007F2200030114000001003F3F3F006DD9
:104DF6006B5F64656C6179006D6B5F696E7465727B
:104E060076616C006D6B5F6D61785F73706565646C
:104E1600006D6B5F74696D655F746F5F6D617800BF
:104E26006D6B5F776865656C5F6D61785F737065E4
:104E36006564006D6B5F776865656C5F74696D6549
:104E46005F746F5F6D6178000A092D205665727375
:104E5600696F6E202D0A5649443A203078464545FA
:104E66004428226B756A6979682229205049443A98
:104E76002030783630363028226C6F7475733430B3
:104E86002229205645523A203078303130300A42B5
:104E960055494C443A2020284A756C20203220324D
:104EA600303235290A4F5054494F4E533A204C550B
:104EB6004641204D4F5553454B455920434F4E5380
:104EC6004F4C4520434F4D4D414E44204E4B524F83
:104ED600204C544F20343039360A4743433A203168
:104EE600342E322E30204156522D4C4942433A2020
:104EF600322E312E30204156525F415243483A20DD
:104F0600617672350A004484154501C100AC00DFA4
:104F160002F802110336323331F7F6F5946697C676
:0A4F260034350008101818100800B8
:00000001FF
